:020000040800F2
:100000000000022059090008550900080D54000895
:1000100055090008550900085509000800000000AE
:10002000000000000000000000000000550900086A
:100030005509000800000000550900089153000808
:100040005509000855090008550900085509000818
:100050005509000855090008550900085509000808
:10006000550900085509000855090008994F00086E
:10007000A54F0008D1390008B14F0008BD4F000856
:100080003D0A01087141000855090008550900089A
:1000900055090008550900085509000855090008C8
:1000A00055090008550900085509000855090008B8
:1000B00011FE00081DFE000829FE0008A5410008E9
:1000C00055090008B14100085509000881F60008EB
:1000D0008DF6000871080108A1080108D50801087B
:1000E00055090008550900080000000055090008DE
:1000F0005509000855090008550900085509000868
:10010000550900085509000835FE000899F6000851
:10011000090901083D0901085509000855090008A9
:100120005509000855090008BDF60008F1F6000859
:10013000710A010855090008550900085509000809
:1001400000000000000000000000000000000000AF
:1001500055090008550900085509000871090108EA
:10016000BD41000855090008A1530008C553000807
:1001700055090008E9530008550900085509000809
:100180005509000855090008A5090108D509010805
:10019000A5F60008B1F60008550900085509000841
:1001A00055090008550900085509000855090008B7
:1001B000B94C000855090008550900085509000800
:1001C0005509000855090008550900085509000897
:1001D0005509000855090008550900085509000887
:1001E0005509000855090008550900085509000877
:1001F0005509000855090008550900085509000867
:100200005509000855090008550900085509000856
:100210005509000855090008550900085509000846
:10022000550900085509000855090008000000009C
:10023000550900085509000800000000550900088C
:100240005509000855090008550900085509000816
:100250005509000855090008550900085509000806
:1002600055090008550900085509000855090008F6
:100270005509000855090008090A01080000000096
:10028000550900085509000855090008000000003C
:08029000000000005509000800
:1002980010B5054C237833B9044B13B10448AFF3B8
:1002A80000800123237010BD10040024000000000A
:1002B8003074010808B5034B1BB103490348AFF379
:1002C800008008BD000000001404002430740108F8
:1002D80081F0004102E000BF83F0004330B54FEAEF
:1002E80041044FEA430594EA050F08BF90EA020F5C
:1002F8001FBF54EA000C55EA020C7FEA645C7FEAEF
:10030800655C00F0E2804FEA5454D4EB5555B8BF11
:100318006D420CDD2C4480EA020281EA030382EA82
:10032800000083EA010180EA020281EA0303362D14
:1003380088BF30BD11F0004F4FEA01314FF4801CE7
:100348004CEA113102D0404261EB410113F0004FF9
:100358004FEA03334CEA133302D0524263EB4303B0
:1003680094EA050F00F0A780A4F10104D5F1200E4E
:100378000DDB02FA0EFC22FA05F2801841F10001A9
:1003880003FA0EF2801843FA05F359410EE0A5F17D
:1003980020050EF1200E012A03FA0EFC28BF4CF0AE
:1003A800020C43FA05F3C01851EBE37101F0004564
:1003B80007D54FF0000EDCF1000C7EEB00006EEB71
:1003C8000101B1F5801F1BD3B1F5001F0CD34908FB
:1003D8005FEA30004FEA3C0C04F101044FEA445252
:1003E80012F5800F80F09A80BCF1004F08BF5FEAD9
:1003F800500C50F1000041EB045141EA050130BDB9
:100408005FEA4C0C404141EB0101013C28BFB1F5CA
:10041800801FE9D291F0000F04BF01460020B1FA15
:1004280081F308BF2033A3F10B03B3F120020CDAE8
:100438000C3208DD02F1140CC2F10C0201FA0CF0C6
:1004480021FA02F10CE002F11402D8BFC2F1200C2B
:1004580001FA02F120FA0CFCDCBF41EA0C019040E1
:10046800E41AA2BF01EB0451294330BD6FEA04042A
:100478001F3C1CDA0C340EDC04F11404C4F1200215
:1004880020FA04F001FA02F340EA030021FA04F327
:1004980045EA030130BDC4F10C04C4F1200220FA7E
:1004A80002F001FA04F340EA0300294630BD21FABC
:1004B80004F0294630BD94F0000F83F4801306BF82
:1004C80081F480110134013D4EE77FEA645C18BF76
:1004D8007FEA655C29D094EA050F08BF90EA020F0D
:1004E80005D054EA000C04BF1946104630BD91EA05
:1004F800030F1EBF0021002030BD5FEA545C05D108
:100508004000494128BF41F0004130BD14F5800446
:100518003CBF01F5801130BD01F0004545F0FE41BA
:1005280041F470014FF0000030BD7FEA645C1ABFEF
:10053800194610467FEA655C1CBF0B46024650EA26
:10054800013406BF52EA033591EA030F41F4002152
:1005580030BD00BF90F0000F04BF0021704730B5D8
:100568004FF4806404F132044FF000054FF00001AD
:1005780050E700BF90F0000F04BF0021704730B56E
:100588004FF4806404F1320410F0004548BF404243
:100598004FF000013EE700BF42004FEAE2014FEA98
:1005A80031014FEA02701FBF12F07F4393F07F4F73
:1005B80081F06051704732F07F4208BF704793F076
:1005C8007F4F04BF41F40021704730B54FF4607489
:1005D80001F0004521F000411CE700BF50EA01028C
:1005E80008BF704730B54FF000050AE050EA010235
:1005F80008BF704730B511F0004502D5404261EBA5
:1006080041014FF4806404F132045FEA915C3FF4E5
:10061800D8AE4FF003025FEADC0C18BF03325FEA82
:10062800DC0C18BF033202EBDC02C2F1200300FA33
:1006380003FC20FA02F001FA03FE40EA0E0021FA58
:1006480002F11444BDE600BF53B94AB9002908BFF6
:1006580000281CBF4FF0FF314FF0FF3000F074B995
:10066800ADF1080C6DE904CE00F006F8DDF804E001
:10067800DDE9022304B070472DE9F047089D0446E0
:100688008E46002B4DD18A42944669D9B2FA82F23D
:1006980052B101FA02F3C2F1200120FA01F10CFA79
:1006A80002FC41EA030E94404FEA1C48210CBEFBB1
:1006B800F8F61FFA8CF708FB16E341EA034306FB3A
:1006C80007F199420AD91CEB030306F1FF3080F0C9
:1006D8001F81994240F21C81023E63445B1AA4B216
:1006E800B3FBF8F008FB103344EA034400FB07F7B8
:1006F800A7420AD91CEB040400F1FF3380F00A81F9
:10070800A74240F207816444023840EA0640E41BED
:1007180000261DB1D4400023C5E900433146BDE899
:10072800F0878B4209D9002D00F0EF800026C5E93B
:10073800000130463146BDE8F087B3FA83F6002E53
:100748004AD18B4202D3824200F2F980841A61EBCB
:10075800030301209E46002DE0D0C5E9004EDDE7E9
:1007680002B9FFDEB2FA82F2002A40F09280A1EBD1
:100778000C014FEA1C471FFA8CFE0126200CB1FB26
:10078800F7F307FB131140EA01410EFB03F088421F
:1007980008D91CEB010103F1FF3802D2884200F2AC
:1007A800CB804346091AA4B2B1FBF7F007FB10113E
:1007B80044EA01440EFB00FEA64508D91CEB0404DC
:1007C80000F1FF3102D2A64500F2BB800846A4EB37
:1007D8000E0440EA03409CE7C6F12007B34022FA22
:1007E80007FC4CEA030C20FA07F401FA06F31C4351
:1007F800F9404FEA1C4900FA06F3B1FBF9F8200C5E
:100808001FFA8CFE09FB181140EA014108FB0EF0A3
:10081800884202FA06F20BD91CEB010108F1FF3AF3
:1008280080F08880884240F28580A8F102086144FF
:10083800091AA4B2B1FBF9F009FB101144EA01410D
:1008480000FB0EFE8E4508D91CEB010100F1FF34B8
:100858006CD28E456AD90238614440EA0840A0FB50
:100868000294A1EB0E01A142C846A64656D353D026
:100878005DB1B3EB080261EB0E0101FA07F722FA4A
:1008880006F3F1401F43C5E9007100263146BDE873
:10089800F087C2F12003D8400CFA02FC21FA03F3D6
:1008A800914001434FEA1C471FFA8CFEB3FBF7F057
:1008B80007FB10360B0C43EA064300FB0EF69E427C
:1008C80004FA02F408D91CEB030300F1FF382FD215
:1008D8009E422DD9023863449B1B89B2B3FBF7F6BD
:1008E80007FB163341EA034106FB0EF38B4208D996
:1008F8001CEB010106F1FF3816D28B4214D9023ED7
:100908006144C91A46EA004638E72E46284605E7F4
:100918000646E3E61846F8E64B45A9D2B9EB0208C5
:1009280064EB0C0E0138A3E74646EAE7204694E755
:100938004046D1E7D0467BE7023B614432E7304688
:1009480009E76444023842E7704700BFFEE700BF8A
:100958000B480C4A904203D0121A0B4914F058FD68
:100968000A480B4A904203D0121A002114F05EFD87
:1009780004F08EFF14F028FD00F0A0FCFEE700BF95
:1009880000000024100400246874010810040024E6
:1009980068B60424704700BF704700BF704700BFA7
:1009A800704700BF704700BF704700BF704700BF67
:1009B800704700BF704700BF704700BF2DE9F04780
:1009C800D648D74C02F042FCD64884ED000A02F023
:1009D8003DFCD54BD54A1B7882ED000A012B00F06F
:1009E8008E80022B00F05281002B00F0EB8004F087
:1009F8007DFDCF4BDFF8BCA3CE4FD3ED007ADFF8F7
:100A0800B883DFF8B893CC4ECC4D9FEDCD4ACD4B93
:100A1800DFEDCD5ADAED006AE7EE845AD3ED007ABD
:100A2800DFEDCA4A76EEE76A9FEDC95A9FEDC97AAB
:100A38009FEDC96AE6EEA47AC84999ED000AC8484C
:100A4800A7EE857AC3ED007A67EE867A48F69F436B
:100A5800FDEEE76A27EE067AB8EEE65ABDEEC76AFB
:100A680077EEC57A16EE102AB8EEC65A9A4237EED5
:100A7800457A28BF1A468A6016EE902A81ED007AD8
:100A88009A4228BF1A461346B64A1361B64BC2EDBE
:100A9800007AC3ED025A13F01DF898ED000AB04829
:100AA80013F02CF897ED000AAD4813F03BF8F2EE7E
:100AB8000E6AF7EE007AD6ED004A95ED005ADFEDA2
:100AC800AB5AE4EEA67A9FEDAA7A94ED006AA5EEF9
:100AD800257ADFEDA86A9FEDA80AA84BA6EE260A9C
:100AE800A748F8FE677AFDEEE77AB8FE477ABDE8D0
:100AF800F04783ED017AC3ED027A13F08BB8A14871
:100B080002F0A4FBA04B9FEDA17AD3ED007A894FA8
:100B180077EEC07A9E48DFF8A082DFF8A092F0EE68
:100B2800E77AF4EEC77AF1EE10FAC4BF83ED000A53
:100B380087ED000A02F08AFB964B9FED947AD3ED7D
:100B4800007A954877EEC07AF0EEE77AF4EEC77A45
:100B5800F1EE10FAC4BF83ED000A88ED000A02F036
:100B680075FB8E4B9FED897AD3ED007A8C4877EE32
:100B7800C07AF0EEE77AF4EEC77AF1EE10FAC4BF65
:100B880083ED000A89ED000A02F060FB854B9FEDBA
:100B98007F7AD3ED007A77EEC07AF0EEE77AF4EE5A
:100BA800C77AF1EE10FA40F31D8183ED000A604B1D
:100BB800DFF800A2D3ED007A7B4B5F4E5F4D83EDEB
:100BC800000A22E76F4802F041FB6F4B9FED6F7AF6
:100BD800D3ED007ADFF8DCA177EEC07A6C48F0EE4E
:100BE800E77AF4EEC77AF1EE10FAC4BF83ED000A93
:100BF8008AED000A02F02AFB664B9FED647AD3ED7A
:100C0800007A77EEC07AF0EEE77AF4EEC77AF1EE82
:100C180010FA04DD654A83ED000A82ED000A604897
:100C280002F014FB5F4B9FED597AD3ED007A77EE13
:100C3800C07AF0EEE77AF4EEC77AF1EE10FA04DD46
:100C48005B4A83ED000A82ED000A534802F0FEFA7F
:100C5800524BDFED4E6AF0EE407A93ED007A37EEB4
:100C6800407AB0EEC77AB4EEE67AF1EE10FA40F3C5
:100C7800AE802F4A2F4FDFF84081DFF840912E4E8B
:100C88002E4D83ED000A82ED000ABEE63D4802F0D3
:100C9800DDFA3D4B9FED3D7AD3ED007A264E77EE97
:100CA800C07A3B48254DF0EEE77AF4EEC77AF1EECC
:100CB80010FAC4BF83ED000A86ED000A02F0C6FAF6
:100CC800344B9FED327AD3ED007A354877EEC07A0F
:100CD800F0EEE77AF4EEC77AF1EE10FAC4BF83EDCE
:100CE800000A85ED000A02F0B1FA2E4B9FED277A33
:100CF800D3ED007A77EEC07AF0EEE77AF4EEC77AB1
:100D0800F1EE10FA5CDC0A4BDFF8A8A0D3ED007A0C
:100D1800084FDFF8A480DFF8A49076E6B8790424B9
:100D280018000024787904247C6904242C00002409
:100D38001C000024280000240400002408000024CB
:100D480000E899460C00002400009643F7CC92383E
:100D5800A4707D3F0AD7233C00803B472C04002425
:100D6800C4690424B83602248069042400B03347D7
:100D78000000FA446666663FCDCCCC3D6469042425
:100D88007069042458790424D07F04240AD7A33B2B
:100D980098790424D47F0424D8790424D87F04249F
:100DA800F8790424DC7F0424F07804241400002457
:100DB80010000024EC7804242000002424000024DF
:100DC8000C4A83ED000A82ED000A0B4B9CE70A4BA4
:100DD8000A4FDFF83480D3ED007ADFF83090084E00
:100DE800084D12E6044BDFF828A0D3ED007A044E34
:100DF800044D0AE6E87804241C0000242800002496
:100E080004000024080000242000002424000024FA
:100E1800EC7804242DE9F04FC74E81468A463046C7
:100E28002DED0A8B85B0009200F026FC304600F0CC
:100E380033FCFFF7C3FDC14802F0FCFAC04802F0DA
:100E4800F9FA96F8983123B196F89E317F2B00F085
:100E58000D8296F8883123B196F88E317F2B00F0F9
:100E6800F58196F86E31B74AFF3B18BF012313701E
:100E7800009B002B00F01F81B34B0024DAF8002000
:100E8800DFF800B301931BE0B0EE480AAF4812F058
:100E98008BFE85ED000A96F8AE31FF2B00F0288115
:100EA800DAF80020D51995ED008ADBED007A0134D7
:100EB800009B27EE888AA34285ED008A00F0FB801C
:100EC800D9F8003002EB84050199A70003EB8403ED
:100ED800097893ED008A85ED008A0029E5D196F816
:100EE8004E31FF2B00F0EC8096F85E31FF2BCBD112
:100EF800944B1B78002B00F04781954DB7EE009A74
:100F0800944BB6EE02BA9FED94CA039305F50C33E1
:100F1800DFED92BA93EDA8AA029379EE4A8ADFED43
:100F280090AA28EE8C0A13F08FFEF0EE409A28EE75
:100F3800AB0A13F089FE60EE0B8A2AEE0C0A13F056
:100F480083FEE9EEAA8AF0EE409A2AEE2B0A13F005
:100F58007BFE60EE0B7AEA687E4BE9EEAA7A05EB37
:100F6800820278EEA88A92ED067AAA6805EB8202D8
:100F780077EEA77A67EE877A92ED067A794AE7EEF6
:100F8800287A92ED007A784A39EE479AD2ED006ACB
:100F980029EE089AA6EEA78AF0EE488AB0EE498AAA
:100FA800A7EE278A7148B0EE680A039312F0AEFEE6
:100FB800039B48F69F42DFF8C881F0EE407A5968F3
:100FC800B0EE680A03EB81001144A8FB012C48F637
:100FD800A042C0ED037A4FEADC3C644802FB1C11D6
:100FE800596012F093FE48F69F42D5E901C3D5E94E
:100FF800040102EB030EEB6801441A4448F6A143CE
:101008000131634405EB8C0C8CED060AB1FBF0FC56
:1010180000FB1C110391411E03986861A8FB03C0E3
:1010280048F6A04CC00B0CFB1030A8FB0EC3A8FB65
:1010380002C848F6A04CDB0B68604FEAD8380CFBB6
:1010480013E30CFB1822AB60EA60029AD2F89832DC
:10105800A1EB030C0399614565D9114692F8A422C6
:10106800002A40F0CB800122013881F8A42291F8AF
:101078009C22002A40F00481E86007EE903AB7EE1F
:10108800007A029BB8EE676AD3EDA86AC7EE067AC3
:1010980077EEA67AF4EEC77AC3EDA87AF1EE10FAE5
:1010A80046DD029A002382F8A432012382EDA87A51
:1010B80082F89C323CE005B0BDEC0A8BBDE8F08FAD
:1010C800B0EE480A2A4812F085FC2A4BDAF800509C
:1010D800B7EE008AD3ED007A3D4438EE678A95ED85
:1010E800007A28EE078AA7EE808A85ED008AFBE65B
:1010F800DAF80030B7EE008A1F483B4493ED000A47
:1011080012F0B2FB1D4BDAF80020D3ED007AD519A6
:1011180038EE678A95ED007A28EE078AA7EE808A6E
:1011280085ED008AC1E6029A92F8A422002A65D1C8
:10113800DAF800503D44A7E6F4780424E07F04245C
:10114800FC7F0424300000246069042470690424AE
:10115800B83602242C040024E4CB9640DB0FC93FA8
:101168000000803D1000002414000024806904243D
:10117800C4690424F078042464690424E878042405
:10118800D55204E92C000024434B48F6A0454348B7
:10119800F7EE007AD3ED005A90ED006AD3E9011218
:1011A80077EEC67A0A443E49501CA1FB02EC67EE72
:1011B800887AA1FB00E14FEADC3CC90B05FB1C2245
:1011C80005FB110003EB8202364D03EB800092ED24
:1011D800037A354AD0ED036A76EEC76AA6EEA57A99
:1011E800D2ED006A05F50C320292A6EE878AE6EE89
:1011F800077AF0EE488AB0EE678AD3E6029A92F848
:101208009C22002A3FF439AF07EE903AB7EE006A05
:10121800029BF8EE676AD3EDA87A86EE267A77EE17
:10122800C77AF5EEC07AC3EDA87A0023F1EE10FA7A
:101238007FF57EAF029ADAF80050C2F8A032002398
:101248003D4482F8A43282F89C321DE6174AF7EE34
:10125800007A9FED170A1378164883F00103002BD4
:10126800137007FE800A02F0D3F8FAE5124A1378E1
:10127800012B0DD0022B08D023B104F037F9E8E593
:10128800A860C1E701231370E3E500231370E0E5CC
:1012980002231370DDE500BF2C0400241000002495
:1012A800D55204E9B83602241400002460690424E5
:1012B80000000000E07F04247C69042400B50021BC
:1012C80083B05C4800F0B2FC04215A4800F084F96D
:1012D8000321584800F0A6F9564800F0C9F9DFED97
:1012E800568A16209FED558A00F028FDADF80000BB
:1012F800B0EE680A00990022514802F065F81720FC
:1013080000F01CFDADF8040001990022B0EE680A57
:101318004C4802F059F8B7EE000A494802F078F84C
:10132800474802F087F8474802F084F8B0EE480AC8
:10133800454812F0E3FA454B434893ED000A12F092
:10134800F1FB434B404893ED000A12F0D7FB414BA9
:10135800414C93ED000A3C4812F0BCFB3F4DB0EE07
:10136800480A204612F072FA0323B0EE480A2846CB
:10137800C4ED018AA36012F0ADFC394C4FF07C52E9
:101388003848002338499FED390AA0612046216179
:101398006B606260E260E36184ED058A84ED020AB5
:1013A80013F0A8F840F20112F0EE407A04239FED02
:1013B800300A2046A285C4ED087A237084ED020A1B
:1013C80013F098F82B491B482B4D84ED080A00F0C0
:1013D80001F905E01BB304F089F81A4802F02AF86D
:1013E8001F4812F0A5FE174802F012F82B78012BBF
:1013F8000BD0022BEED19FED210A194884ED020A89
:1014080013F078F884ED080AE7E79FED1D0A144801
:1014180084ED020A13F06EF884ED080ADDE79FED0B
:10142800190A0F4884ED020A13F064F884ED080ADB
:10143800D3E700BFF478042400007A4400803B47D7
:10144800E07F0424FC7F0424C469042428000024C9
:1014580020000024240000246469042480690424F2
:10146800188004243EC3AE37DB0F49400000C84251
:10147800CDCCCC3D1D0E00087C690424CDCC4C3D60
:101488008FC2F53C8FC2753C70B5244D0023244CA7
:101498004FF40072234E05F2DA4023492B606B614A
:1014A8002B62C5F8C43413F0B3FF22461F492846FF
:1014B80013F02CF8224631461D4813F027F822462F
:1014C80031461C4813F022F822461B491B4813F0EA
:1014D8001DF822461A491B4813F018F822461A49E3
:1014E8001A4813F013F8224619491A4813F00EF84F
:1014F80022461949194813F009F82246184919488B
:1015080013F004F822461849184812F0FFFF224643
:1015180017491848BDE8704012F0F8BFF478042461
:10152800000000249D09000844540108A10900088E
:10153800E07F0424FC7F0424BD0900082C04002457
:10154800C1090008B8360224B9090008C46904248E
:10155800A909000864690424B10900088069042401
:10156800AD09000870690424B509000848800424FE
:10157800A50900081880042410B5037D82B004462C
:1015880001335BB20375037D5BB2012B03DDFF23DF
:10159800037502B010BD037D826859B240FA83F327
:1015A800019001EB81110A44197B094B41F040017C
:1015B8000093412303F03AF80028EAD0204603F0CC
:1015C8000BF80146204602B0BDE8104002F06EBF9D
:1015D8008115000800F0C8BBF8B5054600F0E4FB2B
:1015E80005F1640405F59276284600F0F9FB2046DB
:1015F800203401F04FFEB442F6D105F2644405F2FE
:10160800D447284600F0ECFB23461C3483ED000A3F
:10161800BC42F6D1284600F0E3FB3046BDE8F8406E
:1016280001F038BEF8B5054600F0A2FB05F16404E8
:1016380005F59276284600F0D3FB2046203401F0C9
:1016480029FEB442F6D105F2644405F2D44728468F
:1016580000F0C6FB23461C3483ED000ABC42F6D1D9
:10166800284600F0BDFB3046BDE8F84001F012BE48
:10167800183002F03DB900BF38B500F1640400F538
:1016880092752046203401F0E1FDAC42F9D12046A4
:10169800BDE8384001F0DABD38B500F5A27400F5B0
:1016A800DA753C3001F052FE2046103401F000FF9C
:1016B800AC42F9D138BD00BF2DE9F04F89B084465E
:1016C800D0F8C84404270DF10F060DF107050DF1F8
:1016D80017090DF11808B24640F6FE7E01965E4BDA
:1016E80004AEBCF8DAB493E8030002ABF34583E830
:1016F800030015F8012F4FEA221102F00F0301EB46
:10170800811117FB03132344B3F80120C2F30B0222
:101718000BEB020188BF42F48052C1F30B01A3F81E
:101728000120A3F803104D49019B03C986E8030073
:101738004B4913F8012F03C9019302F00F0388E8FE
:1017480003001011BCF8DA1400EB8010714517FB88
:1017580003032344B3F80120C2F30B0201EB020098
:1017680088BF42F48052C0F30B00A3F80120A3F80D
:10177800030019F8013FBCF8DA141A1103F00F033B
:10178800714502EB821202EB83032344B3F8012074
:10179800C2F30B0201EB020042F4805BC0F30B00C2
:1017A800A3F8030052D9AA45A3F801B097D1B4F819
:1017B8003D2040F6FE70BCF8DA14C2F30B028B1819
:1017C800C3F30B03A4F83F3040F6FE739942B4F814
:1017D800663088BF42F48052C3F30B03A4F83D205F
:1017E800BCF8DA145A18C2F30B02A4F8682040F6C1
:1017F800FE729142B4F86A2088BF43F48053C2F362
:101808000B02A4F86630BCF8DA148B18C3F30B0388
:10181800A4F86C3040F6FE739942B4F86E3088BF75
:1018280042F48052C3F30B03A4F86A20BCF8DA141C
:101838005A188142C2F30B0288BF43F48053A4F8BC
:101848007020A4F86E3009B0BDE8F08FAA45A3F85F
:1018580001207FF444AFAAE74456010880560108E6
:101868008C5601082DE9F04387B000270446A949A2
:1018780005A8A94E059702F019FE059B06F18402FA
:10188800A64904F2C445C4F8C434FF23C4F8D014EC
:101898004FF0060E3946C4F8CC24C4F8C86484F85E
:1018A800D83401E0D4F8C8640A1101F00F008B00A5
:1018B800013102EB82129BB2202906F802E002EB0A
:1018C8008000D4F8C874D4F8CC6407EB000CACF8EA
:1018D8000130ACF8033006F802E0D4F8CC24024416
:1018E800A2F80130A2F80330DCD194F8D2340B2BE3
:1018F8000FD0B4F8D224012304F2D440A4F8D4249D
:10190800A4F8D634039002F00BF90021039802F0F2
:10191800F1F904F59A6704F2D2494FF0000817F874
:10192800011B0126022304AA41F040012846009623
:101938000391ADF8108002F051FE142003F0D4FD9D
:10194800022304AA039928460096ADF8108002F0F5
:1019580045FE142003F0C8FD4FF4005202230399FA
:10196800ADF81020284604AA009602F037FE14208D
:1019780003F0BAFD052343F2016203990093284658
:10198800ADF81020022304AA02F028FEB945C6D1FA
:101998002046FFF791FE94F8D8341B06FBD5D4F8FF
:1019A800C824D4F8CC34C4F8CC24C4F8C834B2F869
:1019B8000310A3F80310B2F80710A3F80710B2F841
:1019C8000B10A3F80B10B2F80F10A3F80F10B2F811
:1019D8001310A3F81310B2F81710A3F81710B2F8E1
:1019E8001B10A3F81B10B2F81F10A3F81F10B2F8B1
:1019F8002310A3F82310B2F82710A3F82710B2F881
:101A08002B10A3F82B10B2F82F10A3F82F10B2F850
:101A18003310A3F83310B2F83710A3F83710B2F820
:101A28003B10A3F83B10B2F83F10A3F83F10B2F8F0
:101A38004410A3F84410B2F84810A3F84810B2F8BC
:101A48004C10A3F84C10B2F85010A3F85010B2F88C
:101A58005410A3F85410B2F85810A3F85810B2F85C
:101A68005C10A3F85C10B2F86010A3F86010B2F82C
:101A78006410A3F86410B2F86810A3F86810B2F8FC
:101A88006C10A3F86C10B2F87010A3F87010B2F8CC
:101A98007410A3F87410B2F87810A3F87810B2F89C
:101AA8007C10A3F87C10B2F88010A3F88010FF21F6
:101AB80084F8D81494F8D83401335BB284F8D83455
:101AC80094F8D8345BB2012B04DD84F8D81407B03D
:101AD800BDE8F08394F8D81401954BB244FA81F12B
:101AE8000F4C03EB831091F8D01441230094024467
:101AF80041F04001284602F099FD0028E7D0284629
:101B080002F06AFD0146284602F0D0FC07B0BDE8A5
:101B1800F08300BFA05601080000003000010B0050
:101B280081150008F0B50646A9B01020002400F081
:101B380005F903460AA806F11807ADF80C3006F1B6
:101B48006405039901F0E2FC132000F0F7F803465E
:101B58000DF13900ADF81030049901F0D7FC1120CF
:101B680000F0ECF803460DF14A00ADF81430059981
:101B780001F0CCFC142000F0E1F803460DF15B0005
:101B8800ADF81830069901F0C1FC122000F0D6F823
:101B980003461BA8ADF81C30079901F0B7FC1520C7
:101BA80000F0CCF803460DF17D00ADF8203008991F
:101BB80001F0ACFC0F2000F0C1F803460DF18E00D7
:101BC800ADF82430099901F0A1FC042307220AA9E1
:101BD800384601F0A9FCE1B2384601F09FFE014603
:101BE80030460134019100F0FBF800232846DFED70
:101BF8000E0A203501991A4601F0F6FA062CEAD1A8
:101C08002146384601F08AFE01463046019100F02F
:101C1800E7F80023DFED040A019906F592701A46E9
:101C280001F0E2FA29B0F0BD6F12033BF0B50546AA
:101C38002DED028B89B005F5A2749FED378A0191CD
:101C480000F07AF80199284600F036F9334B0DF187
:101C580017060DF11E0793E803000B0C0690ADF86C
:101C68001C108DF81E3016F8010F00F067F80346B7
:101C7800B0EE480A2046ADF814301034059901F04A
:101C8800FDFBBE42EFD11C2005F1640400F056F8BC
:101C980003461B2005F59276ADF80C3000F04EF89F
:101CA80003460E20ADF8103000F048F8ADF81800E3
:101CB80005F13C009FED180A069BDDE9031201F0CF
:101CC80015FB2846FFF7CEFD2846FFF72BFF3021EE
:101CD800284600F069F8284600F082F820462034AB
:101CE80001F0D8FAA642F6D105F2644405F2D447C9
:101CF800284600F075F823461C3483ED000ABC42E0
:101D0800F6D1284600F06CF8304609B0BDEC028BDD
:101D1800BDE8F04001F0BEBA000000009856010886
:101D2800044B06221A7083F8412083F8842083F834
:101D3800C520704700000030704700BF202882B0DF
:101D480009D8084B03EB400213F81030507843EAE7
:101D5800002002B0704701230C2043EA002002B0A3
:101D6800704700BFB4560108143001F009BA00BF2B
:101D780038B500F1140504462DED028B284601F014
:101D8800BBF9284601F0B4F92846B0EE408A01F0C4
:101D98009DF9D0ED007AF8EE677A88EE277ABDECE7
:101DA800028B84ED0E7A38BD38B500F1140504466F
:101DB8002DED028B284601F08DF9284601F098F99F
:101DC8002846B0EE408A01F081F9D0ED007AF8EEAD
:101DD800677A88EE277ABDEC028B84ED0E7A38BDDF
:101DE80090ED0E0A704700BFF0B5032399B00027A5
:101DF8000125129306462C4B09A81595CDE90E73BB
:101E080040F20453ADF84030284BCDE913570993FD
:101E180001F086FE09A801F05FFF002836D1244BA7
:101E280004AF04460090CDF842301023394604959B
:101E38008DF820301F4BCDE91650CDE90650684685
:101E4800059302F033FB0823009A01A909A8ADF80D
:101E580004508DF8064009940295039300F0E4F8C5
:101E680000230EA938463024049303F01DF90322F9
:101E78004FF07E5309A906F114000B930C93CDE99A
:101E88000942049A01F0EAF819B0F0BD40F60132AF
:101E9800074B169704AFADF824200998CDF84230C7
:101EA800179500F081F8DBE704020404030300013E
:101EB800040604030704010B2DE9F04304462DED45
:101EC800028B83B0002948D0012140F2011200237F
:101ED8000091ADF804208DF80630304A0126304BC9
:101EE800271D304904F12908626040F20272A3609C
:101EF80040F60663E16004F125092682A4F825204E
:101F080084F82760A4F8293084F82B6003F076FC65
:101F18006946054648B304F130008DF8066003F0C1
:101F2800CBFB072D34D104F114052046FFF75CFFE5
:101F3800284601F0DDF82846B0EE408A01F0C6F8E0
:101F4800D0ED007AF8EE677A88EE277A84ED0E7A7B
:101F580003B0BDEC028BBDE8F08340F201130091A1
:101F68008DF80610ADF80430B7E704F1300003F03F
:101F7800A3FB3946204602F017FD484601F0D0FD84
:101F8800404601F0CDFD04F1120000F077F9CAE7F0
:101F98003946204602F008FDC5E700BF05080509D7
:101FA80005070506050A060610B584B00346012490
:101FB800ADF8040003A8ADF80C30ADF80E4001F000
:101FC800AFFD214603A801F095FE204603F08CFAE8
:101FD800002103A801F08EFE204603F085FA214671
:101FE80003A801F087FE04B010BD00BF10B5C2F30E
:101FF800002384B00C46017C8DF80D2043EA44028E
:10200800FA2402238DF80C2003AA009402F0E6FAC1
:1020180018B10124204604B010BD04460A2003F07C
:1020280063FA204604B010BD034670B543F8042B8C
:10203800044684B007C983E80700A37983B91A2145
:102048000B461E22FA2523742046ADF80C200223E5
:1020580003AA009502F0C2FA28B1012004B070BDAD
:102068001B210B46EDE70A2003F03EFA4FF4B85265
:1020780000950223ADF80C20204603AA217C02F02B
:10208800ADFA0028E9D10A2003F02EFA41F20272D3
:1020980000950223ADF80C20204603AA217C02F00B
:1020A8009DFA0028D9D10A2003F01EFA04220095CF
:1020B8000223ADF80C20204603AA217C02F08EFAF8
:1020C8000028CAD10A2003F00FFA0622009502233D
:1020D800ADF80C20204603AA217C02F07FFA0028E4
:1020E800BBD10A2003F000FA41F20822009502232E
:1020F800ADF80C20204603AA217C02F06FFA0028D4
:10210800ABD10A20064603F0EFF90095022303AA93
:10211800217C2046ADF80C6002F060FA00289CD1C2
:10212800304603F0E1F9009522790C232046002A75
:102138008DF80C3003AA4FF0020314BF622142212C
:102148008DF80D10217C02F049FA002885D130461F
:1021580003F0CAF92279D4E902310B43DBB20AB998
:1021680043F0400362790AB143F020030E22FA25B6
:102178008DF80D302046009502238DF80C2003AA17
:10218800217C02F02BFA00287FF467AF0A2003F0C5
:10219800ABF9102200950223ADF80C20204603AAC3
:1021A800217C02F01BFA00287FF457AF0A2003F0C5
:1021B8009BF9122100950223ADF80C1003AA217C8B
:1021C800204602F00BFA00287FF447AF0A2003F0FC
:1021D8008BF9012209212046FFF708FF003818BFB4
:1021E80001203BE7F0B5102387B0234C01220025DE
:1021F8000126002702A920460195CDE902234FF4C4
:102208008052CDE904670BF021FB642003F09CFDAC
:1022180002A94FF480522046CDE904670226102710
:10222800CDE902670BF012FB0322102302A9204616
:10223800CDE9022300230422CDE904234FF4805280
:102248000BF004FB40F23223042202A9019310236D
:102258002046CDE90223019A012305924FF48052CA
:1022680004930BF0F3FA40F6060120460BF00EFB40
:10227800284607B0F0BD00BF608004241C4B002234
:102288001C494FF0400C30B5054689B00220596012
:1022980007219A601A620124DA620A224FF4006E5A
:1022A800DC6006922022CDE9000104200821CDE956
:1022B800020103201021CDE9040108206946C3E981
:1022C80004024FF4C072181DC3E906C24FF48052CD
:1022D800C3E909E20BF090FA38B92846FFF782FF04
:1022E800003818BF012009B030BD204609B030BD04
:1022F8005C80042440410052614A0021D0B5136833
:102308008EB00A91002B40F0B9805E4B01214FF648
:1023180083700C2411600221D3F8D42000260327EF
:1023280042F48052C3F8D420D3F8D42002F4805267
:102338000092009AD3F8E02042F01002C3F8E0209F
:10234800D3F8E02002F010020192019AD3F8E020BD
:1023580042F04002C3F8E020D3F8E02002F0400247
:102368000292029AD3F8E02042F00802C3F8E02073
:10237800D3F8E02002F008020392039AD3F8E02091
:1023880042F48072C3F8E020D3F8E02002F48072AF
:102398000492049AD3F8E02042F08002C3F8E020C7
:1023A800D3F8E02002F080020592059AD3F8E020E5
:1023B80042F02002C3F8E020D3F8E02002F0200227
:1023C8000692069AD3F8E02042F00402C3F8E0200F
:1023D800D3F8E0300C9403F0040307930323079A1F
:1023E8000B93CDE9080108A9274805F045FB48F2F9
:1023F8003712022308A925480C94CDE90823CDE912
:102408000A6705F039FB4CF20372022308A9204839
:102418000C94CDE90823CDE90A6705F02DFB40F2BD
:10242800FF62022308A91B480C94CDE90823CDE9D3
:102438000A6705F021FB4FF60C72022308A916481B
:102448000C94CDE90823CDE90A6705F015FB4FF692
:102458003F02022308A911480C94CDE90823CDE9CD
:102468000A6705F009FB2022022308A90A480C94F0
:10247800CDE90A67CDE9082305F0FEFA0EB0D0BD14
:1024880058800424004402580010025800180258CA
:10249800000C025800200258001C02580014025870
:1024A8002DE9F04FDFF8108406460D46144608F172
:1024B80018002DED028B89B000AF02F0EDFED8F8C0
:1024C800183073B3D8F81C30D8F80490002B43693F
:1024D8000BBF4FF0080A4FF0100A4FF0020B4FF0F5
:1024E800040BB9F1000F2AD0A200EA46012B02F131
:1024F800070222F00702ADEB020D6846ADEB020DB4
:10250800694600F03F81022B00F0D680002B6FD087
:102518002246C847D5462437BD46BDEC028BBDE8E8
:10252800F08FD8F81C30002BF5D0D8F804904FF075
:10253800080A4FF0020B4369B9F1000FD4D1FB61CF
:10254800D8F80030BB61002BE5D0D54802F016FF63
:102558006B46BBF1020F786108EE103AFB6900F098
:1025680083816A465146A2EBC40295466200EA4658
:10257800B2FBFBF2AAEBC40085460AEB8200EE46EA
:10258800F861ADEB010DF8690EEB820CC7F810C0CD
:10259800EC46ADEB010D00EB8201CCF80400CCF861
:1025A800081001EB82013869E946CCF80C1000EB01
:1025B8008201CCF800A001EB8202C9E900E0C9E978
:1025C8000212012B00F06483022B00F06C82002BB6
:1025D80000F08081620849466046BB69984718EE5A
:1025E800103A24379D46BD46BDEC028BBDE8F08FFE
:1025F800002C8DD01A46D8ED0C6A9FEDB27A84462D
:10260800331D36F922E00CF1080C07EE90EA33F995
:1026180022E00232F8EEE77A944267EE877A67EEB4
:10262800A67A4CED027A07EE90EAF8EEE77A67EEC2
:10263800877A67EEA67A4CED017AE2D8F9612246EC
:10264800C847984ED8ED0D6A0020F9692B1D9FEDFB
:102658009E7A9FED9E6ADFED9E5A22E0F4EEC67ADE
:10266800F1EE10FAC0F2C88447F6FE72D1ED017A95
:1026780045F8202066EEA77AF4EEC77AF1EE10FA54
:1026880040F2F080F4EEC67AF1EE10FAC0F2D5848A
:1026980047F6FE7243F820200230083184427FF664
:1026A80039AFD1ED007A66EEA77AF4EEC77AF1EE8B
:1026B80010FAD3D83246D9E7002C3FF429AFD8ED29
:1026C8000C6A84469FED787A0022331D8E4656F8B0
:1026D80022100CF1080C07EE901A53F8221002325F
:1026E800F8EEE77A944267EE877A67EEA67A4CEDC1
:1026F800027A07EE901AF8EEE77A67EE877A67EEC5
:10270800A67A4CED017AE2D871462246C7F81CE059
:10271800C847664ED8ED0D6A0020F9692B1D9FED5C
:102728006A7A9FED6A6ADFF894C120E0F4EEC67A0F
:10273800F1EE10FAC0F279843246D1ED017A45F80B
:10274800202066EEA77AF4EEC77AF1EE10FA40F28E
:102758008780F4EEC67AF1EE10FAC0F25E84324653
:1027680043F820200230083184427FF6D3AED1ED01
:10277800007A66EEA77AF4EEC77AF1EE10FAD5D8A9
:102788006246DAE7002C3FF4C3AED8ED0C6A864601
:102798009FED477A4FF0000C331D56F82C200EF1B0
:1027A800080E82F40002A2F5000207EE902A53F800
:1027B8002C200CF1020CF8EEE77A82F40002644552
:1027C800A2F5000267EE877A67EEA67A4EED027AE6
:1027D80007EE902AF8EEE77A67EE877A67EEA67A30
:1027E8004EED017AD9D8F9612246C847314ED8ED65
:1027F8000D6A0020F9692B1D9FED337A9FED336A2E
:10280800DFF8BCC01FE0F4EEC67AF1EE10FAC0F2B1
:10281800FC833246D1ED017A45F8202066EEA77A8E
:10282800F4EEC77AF1EE10FA18D9F4EEC67AF1EEA2
:1028380010FAC0F2DA83324643F820200230083119
:1028480084427FF667AED1ED007A66EEA77AF4EEA1
:10285800C77AF1EE10FAD6D86246DBE76246EBE7B4
:1028680062467DE7324615E7A100D6466208073181
:1028780021F00701ADEB010DEA46ADEB010D69460C
:10288800ADEB0E0D0AEB8200EC46ADEB0E0D01EB45
:102898008202F861E946CCE900A0C9E9001290E695
:1028A800B08004240280FFFF000000300082FF7F18
:1028B8000000003482FF7F0094800424007E0080A2
:1028C8007E0080FF0000003804FF7FBF04FF7F3FC9
:1028D80000FEFF46002C00F0C982BBF1020FD8F8B9
:1028E800242000F0FA827969C7F8049002EB810E7F
:1028F8005FED0C5A8A00DCF808100EF104007A61CA
:102908001A46DCF80C303B61331DD7F810903D6156
:10291800FD69C7E902CB8C46834636F92210D8ED0B
:102928000C7A06EE101A33F9221006EE901A3EF9C8
:102938002210B8EEC66A07EE101AF8EEE66A3BF9FE
:102948002210B8EEC77A26EE256A66EEA56A27EE4B
:10295800257A26EE276A66EEA76A27EE277A07EE1B
:10296800901A51080232F8EEE77A0AEB8100944295
:1029780080ED006A05EB810067EEA57AC0ED006A7C
:102988000CEB810009EB810180ED007A98ED0C7A5F
:1029980067EE877AC1ED007ABFD8D7F804903D6911
:1029A800D7E902CB60466208BB6949469847D8F820
:1029B8002C307A69D8ED0D6A1A441FED3D7A1FED67
:1029C8003D6A2B1D904602F1040A5FED3F5A002232
:1029D800A84ED9E900EC51E0F4EEC67AF1EE10FA0F
:1029E800C0F2C78247F6FE7045F822000CEB0100E2
:1029F800D0ED007A66EEA77AF4EEC77AF1EE10FA17
:102A08004BD9F4EEC67AF1EE10FAC0F2BA8247F664
:102A1800FE70BBF1020F43F822002BD0D9F8080052
:102A28000844D0ED007A66EEA77AF4EEC77AF1EEA4
:102A380010FA36D9F4EEC67AF1EE10FAC0F2CD8269
:102A480047F6FE7048F82200D9F80C000144D1ED91
:102A5800007A66EEA77AF4EEC77AF1EE10FA1ED97C
:102A6800F4EEC67AF1EE10FAC0F2AF8247F6FE71C4
:102A78004AF82210023294427FF6B1AD51080EEBAB
:102A880081008900D0ED007A66EEA77AF4EEC77A65
:102A9800F1EE10FAA0D83046A6E73046B9E731463D
:102AA800E6E73046CEE7002C00F0E081BBF1020FEC
:102AB800D8F8243000F0E1817A69DCF8081003EBDB
:102AC800820EC7F804909300DFED6B5A0EF10400F4
:102AD80000227B61DCF80C303B61331DD7F8109085
:102AE8003D61FD69C7E902CB8C46834656F8221042
:102AF800D8ED0C7A07EE101A53F82210B8EEC76A10
:102B080007EE101A5EF82210F8EEC76A07EE101AE0
:102B180026EE256A5BF82210B8EEC77A66EEA56A3B
:102B280026EE276A27EE257A66EEA76A27EE277A29
:102B380007EE901A51080232F8EEE77A0AEB8100A4
:102B4800944280ED006A05EB810067EEA57AC0ED3E
:102B5800006A0CEB810009EB810180ED007A98EDA9
:102B68000C7A67EE877AC1ED007ABFD8D7F804905F
:102B78003D69D7E902CB60466208BB694946984778
:102B8800D8F82C307A69D8ED0D6A1A449FED3E7A50
:102B98009FED3E6A131D9246DFF8E4C00022FB61F8
:102BA8002B1D364ED9E9008E4EE0F4EEC67AF1EED2
:102BB80010FAC0F2FC81304645F822000EEB010005
:102BC800D0ED007A66EEA77AF4EEC77AF1EE10FA45
:102BD80049D9F4EEC67AF1EE10FAC0F2EF81304628
:102BE800BBF1020F43F822002AD0D9F808000844A4
:102BF800D0ED007A66EEA77AF4EEC77AF1EE10FA15
:102C080035D9F4EEC67AF1EE10FAC0F2C981304631
:102C18004AF82200D9F80C000144D1ED007A66EE9A
:102C2800A77AF4EEC77AF1EE10FA1ED9F4EEC67A56
:102C3800F1EE10FAC0F2AD813146F86940F8221081
:102C4800023294427FF6CBAC510808EB8100890030
:102C5800D0ED007A66EEA77AF4EEC77AF1EE10FAB4
:102C6800A3D86046A8E76046BAE76146E5E760464C
:102C7800CEE700BF0280FFFF000000300082FF7F28
:102C8800007E00800000003404FF7FBF04FF7F3F08
:102C9800002C00F0EB807A690021D8F82430C7F8BE
:102CA800109003EB820ED7F81C909300FD610EF193
:102CB80004021FED0C6A7B61331D154656F821206E
:102CC8004808D8ED0C6ABBF1020F82F40002A2F5A5
:102CD800000207EE902A53F8212082F40002B8EE91
:102CE800E77AA2F5000227EE067A07EE902A0AEBA9
:102CF8008002F8EEE77A27EE267A67EE867A82ED8A
:102D0800007A09EB80024FEA800067EEA67AC2EDEE
:102D1800007A27D05EF8212082F40002A2F5000292
:102D280007EE902A55F8212082F40002B8EEE77ADF
:102D3800A2F5000227EE067A07EE902ADCF80820B2
:102D4800F8EEE77A024427EE267A67EE867A82ED75
:102D5800007A98ED0C7ADCF80C2067EE877A02444A
:102D6800C2ED007A02318C42A8D8D7F8109060469C
:102D78006208BB694946FD699847D8F82C307A69DA
:102D8800D8ED0D6A1A441FED407A1FED406A131DF5
:102D98009246DFF8C4C20022FB612B1DAB4ED9E975
:102DA800008E4EE0F4EEC67AF1EE10FAC0F2C5805D
:102DB800304645F822000EEB0100D0ED007A66EEB1
:102DC800A77AF4EEC77AF1EE10FA49D9F4EEC67A8A
:102DD800F1EE10FAC0F2BF803046BBF1020F43F8A3
:102DE80022002AD0D9F808000844D0ED007A66EE0F
:102DF800A77AF4EEC77AF1EE10FA35D9F4EEC67A6E
:102E0800F1EE10FAC0F2AE8030464AF82200D9F846
:102E18000C000144D1ED007A66EEA77AF4EEC77A89
:102E2800F1EE10FA1ED9F4EEC67AF1EE10FAC0F2FD
:102E38008B803146F86940F82210023294427FF6BE
:102E4800CEAB510808EB81008900D0ED007A66EE20
:102E5800A77AF4EEC77AF1EE10FAA3D86046A8E78D
:102E68006046BAE76146E5E76046CEE7224649464E
:102E78006046BB699847FFF7B2BBC7F810B000229D
:102E880098ED0C6A331DDFED726AD7F81CB07869CB
:102E980056F8221007EE901A53F82210B8EEE77A87
:102EA80007EE901A51080232F8EEE77A27EE267AF2
:102EB8000AEB810E94420BEB810167EEA67A27EEAE
:102EC800067A67EE867A8EED007AC1ED007ADFD851
:102ED8008300D7F810B07B614DE61A46C7F810B0EA
:102EE80098ED0C6A331DDFED5B6AD7F81CB0786982
:102EF80036F9221007EE101A33F9221007EE901A4D
:102F0800B8EEC77A51080232F8EEE77A27EE267A49
:102F18000AEB810E94420BEB810167EEA67A27EE4D
:102F2800067A67EE867A8EED007AC1ED007ADFD8F0
:102F38008300D7F810B07B6134E5F0EE675AFEEEF7
:102F4800E45A15EE900A34E7F0EE675AFEEEE45ABA
:102F580015EE901A6EE7F0EE675AFEEEE45A15EE9B
:102F6800900A3AE7F0EE675AFEEEE45A15EE900A38
:102F78004BE767EEA57AFDEEE77A17EE900A00B206
:102F880032E567EEA57AFDEEE77A17EE900A00B211
:102F98003FE5F0EE675AFEEEE05A15EE901A4CE661
:102FA800F0EE675AFEEEE05A15EE900A30E6F0EEC3
:102FB800675AFEEEE05A15EE900AFDE5F0EE675A04
:102FC800FEEEE05A15EE900A0AE667EEA57AFDEEE7
:102FD800E77A17EE901A09B24AE567EEA57AFDEE90
:102FE800E77A17EE900A00B22CE5F0EE675AFEEE8B
:102FF800E45A15EE902A1FE467EEA57AFDEEE77A0B
:1030080017EE902A12B2FFF731BBF0EE675AFEEEC8
:10301800E45A15EE902AFFF7FDBBF0EE675AFEEE74
:10302800E05A15EE902AFFF79BBBF0EE675AFEEECA
:10303800E05A15EE902AFFF780BB67EEA57AFDEE01
:10304800E77A17EE902A12B2FFF724BB82FF7F00BF
:1030580000000030000000387E0080FF30B5184CBA
:10306800154685B0046004F1080EEC460FC98EE8D9
:103078000F00D4ED047AF5EEC07A8CE80F00F1EE7B
:1030880010FA1ADDB7EE006A94ED057A27EE277A72
:10309800C6EE276A84ED0D7AC4ED0C6A6DB1204640
:1030A80040F8185F02F0F8F8064903690020064A5C
:1030B8002162A262E36005B030BD012005B030BDD9
:1030C800948004240821003008010030006808308A
:1030D800704700BFB1F5807F03680A4628BF4FF4E8
:1030E8008072B1F5807F9A6094BF002001207047FC
:1030F8000068183002F030B970B504688AB0A36966
:10310800E160CBB104F11805284602F0C5F8844601
:10311800EE46E668BCE80F00AEE80F00BCE80F001A
:10312800AEE80F009CE803008EE8030069462846D5
:10313800049601F0B9FFF8B9E069D8B104F11C05AB
:10314800284602F0A9F88446EE46E468BCE80F0079
:10315800AEE80F00BCE80F00AEE80F009CE80300E3
:103168008EE8030069462846049401F09DFF003864
:1031780018BF01200AB070BD01200AB070BD00BFA1
:1031880030B5046883B00D46E3694BB1A3680020ED
:10319800E26A616A9B00009004F11C0002F07EF86C
:1031A800A3680748A26A9B00216A009004F11800EE
:1031B80002F074F80020C4E9005003B030BD00BF2D
:1031C800A924000810B4074B4FF07E513024002288
:1031D800032019619C60D8605DF8044B5961C3E90C
:1031E8000622704794800424F6EE007A9FED166A52
:1031F80020EE207A0160F7EE006A80ED036A80ED28
:10320800020A27EE277AC6EE877AF4EEE67AF1EE1E
:1032180010FA11DDF0EE667A4FF07E514FF0000C97
:1032280002760022C0ED017AC0F814C0016143762D
:103238008276C0ED070A7047F4EEC67AF1EE10FA0E
:10324800EAD5F0EE467AE7E7000000000268037E60
:10325800128807EE902AFBEEC87A1BB1B7EE007A07
:1032680077EE677AD0ED056A90ED047A77EEE67A24
:10327800437E67EE877A0BB1F1EE677A90ED030A29
:1032880090ED017A77EEC07AA7EE270A80ED030A5F
:10329800704700BF837E80ED020AABB9D0ED077A94
:1032A80027EE800AF6EE007AB7EE007A20EE270ABB
:1032B800C7EE007AF4EEC77AF1EE10FA07DDF0EE09
:1032C800477AC0ED017A7047DFED067AE8E7F5EE58
:1032D800C07AF1EE10FAF4D5DFED037AC0ED017A89
:1032E800704700BF6F12033B0000000030B585B087
:1032F80004460025ADF80C10ADF80820ADF80430F0
:1033080002F0F0F8BDF80C204FF48073206004F14F
:1033180018002283BDF808206383E383A283257104
:1033280000F0FEFB04F11C0000F0FAFB9FED060A1A
:10333800019904F1080000F0A1F84FF6FF736562E7
:10334800238405B030BD00BF00000000F8B5044676
:1033580002F0C8F8002623682671834205D104F1DB
:103368000800BDE8F84000F0A3B8012794F8205001
:10337800206004F11800BD40277100F0ADFC6DB26B
:10338800284394F82150BD4084F8200004F11C0023
:1033980000F0A2FC94F820306DB2666203F00303DB
:1033A8002843022BC0B284F8210009D000F00300A2
:1033B8000228D4D1002BD2D14FF0FF336362CEE77D
:1033C8008307CCD16762CAE730B52DED028B83B095
:1033D800044601231546ADF804101730BDF8041053
:1033E800B0EE408A0180637600F09AFBB5FA85F367
:1033F800002200215B092575A16084ED048AA5756A
:103408006375C4E9002203B0BDEC028B30BD00BF78
:1034180020EE007ADFED067A27EE000A60EE277AC2
:1034280080ED020AFCEEE77AC0ED017A704700BF32
:1034380000FF7F4790ED046AB7EE007ADFED0E5A81
:103448000346D0ED036AC5EE867A77EEA67AF4EEE7
:10345800C77AF1EE10FAC8BF77EEC77A90ED027A14
:10346800B4EEE77AC0ED037A1730F1EE10FACCBF6C
:10347800597D997D00F03EBC0000F04270B50446CD
:1034880082B0C1F30726CDB2ADF8041002F02AF8D5
:103498004FF480724FF001232060A01DA571A28017
:1034A800E671A36002B0BDE8704000F039BB00BF10
:1034B80038B5044602F016F80022236822718342C8
:1034C80010D00122A57AE37A954020602271A01DD0
:1034D8006DB243B900F000FC40B22843C0B27F2867
:1034E800A0720AD038BD00F0F7FBB0FA80F04009AE
:1034F8002843C0B27F28A072F4D101F0F3FF07EE91
:10350800900AF8EE677AC4ED037A38BD82B04FF0BE
:10351800000C0323ADF80410BDF8042080F810C097
:103528000280438002B070472DE9F04FBE4E00255F
:103538008FB0BE4C037006F140034260074601920B
:103548008846202229463046C4F85831C4F85461C8
:10355800CDE90355CDE90555CDE90755CDE909551F
:10356800CDE90B5511F062FF2022294604F5997028
:10357800C4F82151C4F82551C4F82951C4F82D5173
:1035880011F054FF019B84F8385284F820317A688E
:10359800002A5FD02B464146B64604F590759946F9
:1035A8004FF0010A03EB0310D1F800B0D1F8048002
:1035B8000133D1F808C02218CE6844F800B0C2F828
:1035C8000480C2F808C0D660087C2EF8029B1074EC
:1035D8000A7C05F8012F002A69D07A68113184F82D
:1035E80038A29A42DED84FF4802291489DF80430E0
:1035F80008214FF000084FF00009C4F87431002387
:10360800C4E957020122C4F8643184F87031C4E96E
:103618005A2194F83812C4E9608981B3C4F8882122
:10362800002284F8713184F878313B78C4E9632248
:10363800A3B3012200200121013B84F89421C4E9AD
:103648006801082B2CD8DFE803F0ABB0B5BABFC4CB
:10365800C9CFD6009DF804300121C4F86421C4F80C
:1036680074314FF4802384F87021714AC4E95723D8
:1036780008230022C4E95A130023C4E96023012364
:10368800002284F87131002384F878310323C4F8C8
:1036980088313B78C4E96322002BCAD184F894317D
:1036A800644802F089FF034638B1FFBEFEE77A6836
:1036B80011319A423FF676AF95E703A95D48039327
:1036C80003F0D8F80546002868D1022240F2FF73BB
:1036D800CDE9082300230422CDE90A2394F82031F8
:1036E800002B00F0D5804FF0060921E0022B00F0F6
:1036F8008980012B40F0C4809AF80130012B00F03A
:10370800C180002B4C4B18BF002306A94948CDE9BE
:10371800063902F07DFB002840F0BF80013594F89F
:103728002031EDB2AB4240F2B380444B53F82590C0
:103738002FB207EB071704EB070A504600F0F0F921
:1037480005EB051323441B7C042B7DDC022B00F3C3
:10375800918000F08D806319002283F81021E35DC9
:10376800002BC3D19AF80130062B00F08580072B77
:1037780000F08A80022B00F09680032B00F09580E1
:10378800002B00F09680012B00F09180042B00F0B4
:103798009280052B2A4B18BF0023B6E7FFBEFEE731
:1037A80003224023C4E966237AE707226023C4E999
:1037B800662375E70F228023C4E9662370E71F227A
:1037C800A023C4E966236BE73F22C023C4E966232C
:1037D80066E77F22E023C4E9662361E7FF224FF40E
:1037E8008073C4E966235BE740F2FF124FF49073DD
:1037F800C4E9662354E740F2FF324FF4A073C4E9EA
:1038080066234DE79AF80130042B37D0052B3DD0BD
:10381800002B40D0012B42D0022B42D0032B094B66
:1038280018BF002371E700BF08410030D08004248E
:10383800002002402C8204240002B025F85601081A
:103848000000B84F0020903603233E1D04EB050806
:103858004FF0000B264488F8103130460BF1010B6D
:1038680000F05EF998F8103104365B45F5DC76E730
:103878000123EAE70223E8E7104B46E7104B44E749
:10388800002342E70F4B40E70F4B3EE70F4B3CE767
:103898000FB0BDE8F08F0E4B37E7FFBEFEE70D4BCC
:1038A80033E70D4B31E70D4B2FE70D4B2DE70D4B54
:1038B8002BE70D4B29E70D4B27E700BF0800900CBD
:1038C8001000C0102000F0148000501D000180215D
:1038D8000004002A0008302E001060320040C03A70
:1038E8000080F03E00005247000021430000844B56
:1038F80038B5094C40F2FF724FF0011104F5AE756E
:10390800284602F065FF94F82021D4F8541128467F
:10391800BDE8384002F0D0BCD0800424034B0F2906
:10392800D3F8540198BF00EB41007047D0800424BD
:10393800214B02689A4200D07047204A0023204851
:10394800D2F8D81030B51F4C41F0200183B0C4F82C
:10395800C001092004F5E075C4E971034FF48060E3
:10396800C2F8D810D2F8D8204FF40061C4E97330F7
:1039780094F8380202F02002C4F8D4114FF4005130
:10398800984201922846C4F8D811C4E97833019BBB
:1039980014BF00234FF48073C4F8DC3103F0A2F99C
:1039A80008B1FFBEFEE704F5AE73C4F8A851C4F829
:1039B800F83103B030BD00BF002002400044025877
:1039C80040000240D0800424014803F003BD00BF3A
:1039D8009082042402682DE9F84F4B4B9A4201D09B
:1039E800BDE8F88F494D95F83832002BF8D095F896
:1039F8002031002B77D0002405F10C0905F59976C4
:103A080005F59077A04613E003F0010117F811BC03
:103A1800A9F1080000F06EF9BBF1010F25D895F85F
:103A28002031013409F111090236A2B293422BD98F
:103A380017F8012F002AF4D0D5F854310021327834
:103A480033F81400D5F8583103EB041323F81200A7
:103A5800338801339BB233805FFA83FA3A789A420B
:103A6800D2D88A46A6F80080D0E7CAF34001A9F167
:103A7800040000F03FF9BBF1020FCAF38001CED079
:103A8800484600F037F9CAE7002395F8380220497C
:103A980009229842C5F8C8314FF48060C5F8C011B2
:103AA800C5F8C4214FF400614FF40052C5F8CC3179
:103AB80008BF4FF48073C5F8D821C5E97401002206
:103AC8001448C5E97732C5F8E42103F00BF908B1C9
:103AD800FFBEFEE795F82021D5F854110E48BDE841
:103AE800F84F02F0E9BB0A4909224FF48060C5F893
:103AF800C831C5E970124FF400614FF40052C5E9AE
:103B08007330C5E97512DAE700200240D08004243A
:103B180040000240908204242C820424704700BF95
:103B28008378022B30B504468FB037D0032B33D0BF
:103B3800012B31D000230A93E378012B2AD0022BE2
:103B480028D000230B93002320460C9301F0DAFFC2
:103B58000546204601F0DEFF23780990082B13D88C
:103B6800DFE803F01F3245586B7E91A40500594BDE
:103B7800D3F8E02042F48072C3F8E020D3F8E030B4
:103B880003F480730893089B09A9284603F074FF7F
:103B98000FB030BD0B93D6E70A93CDE711230A93F4
:103BA800CAE74C4B09A92846D3F8E02042F00102A5
:103BB800C3F8E020D3F8E03003F001030093009B42
:103BC80003F05AFF0FB030BD424B09A92846D3F87D
:103BD800E02042F00202C3F8E020D3F8E03003F01E
:103BE80002030193019B03F047FF0FB030BD394B2F
:103BF80009A92846D3F8E02042F00402C3F8E020DF
:103C0800D3F8E03003F004030293029B03F034FF7F
:103C18000FB030BD2F4B09A92846D3F8E02042F059
:103C28000802C3F8E020D3F8E03003F00803039358
:103C3800039B03F021FF0FB030BD264B09A928468E
:103C4800D3F8E02042F01002C3F8E020D3F8E030C7
:103C580003F010030493049B03F00EFF0FB030BD74
:103C68001C4B09A92846D3F8E02042F02002C3F8EB
:103C7800E020D3F8E03003F020030593059B03F020
:103C8800FBFE0FB030BD134B09A92846D3F8E0203E
:103C980042F04002C3F8E020D3F8E03003F04003DC
:103CA8000693069B03F0E8FE0FB030BD094B09A947
:103CB8002846D3F8E02042F08002C3F8E020D3F889
:103CC800E03003F080030793079B03F0D5FE0FB0A5
:103CD80030BD00BF0044025838B5054601F012FF58
:103CE8000446284601F016FF01462046BDE8384044
:103CF80004F0CAB870B506460D4601F003FF044645
:103D0800304601F007FF2A1E0146204618BF01224F
:103D1800BDE8704004F0BEB82DE9F84F04460E46E1
:103D28001746984600F18C05284606F0B1F9202878
:103D3800FAD120682E4B0128636106D0022843D0AF
:103D480000283ED00120BDE8F88F2423A36140233A
:103D5800002004F11409E3614FF480632062A0633A
:103D68006362C4E90A00C4E90C00C4E910004846CB
:103D780002F0B8FF08B1FFBEFEE7C4F8C490E564DE
:103D8800EFF3108A72B6DFF8709094F900300A9A4F
:103D9800DFF868B089F80030CBF80020E3680B9AA8
:103DA800144C22609BB9710043463A46284689B2B2
:103DB80004F008FF90B9BAF1000FC4D162B6BDE8AB
:103DC800F88F2223A361C2E74A23A361BFE74246D3
:103DD8003946284605F068F80028ECD0FF23012072
:103DE80089F800300023CBF800302360E3E700BFF8
:103DF800A000024014830424108304240C830424A8
:103E08002DE9F84F04460E461746984600F18C05F2
:103E1800284606F03DF92028FAD120682D4B0128C4
:103E2800636106D0022842D000283DD00120BDE8B9
:103E3800F88F2323A36100204FF4806304F1140951
:103E4800A0636362C4E90700C4E90A00C4E90C007E
:103E5800C4E91000484602F045FF08B1FFBEFEE77E
:103E6800C4F8C890E564EFF3108A72B6DFF86C9076
:103E780094F900300A9ADFF868B089F80030CBF876
:103E88000020E3680B9A144C22609BB971004346EA
:103E98003A46284689B204F04FFF90B9BAF1000FAC
:103EA800C5D162B6BDE8F88F2123A361C3E74923D2
:103EB800A361C0E742463946284605F061F8002864
:103EC800ECD0FF23012089F800300023CBF8003024
:103ED8002360E3E7A0000240148304241083042431
:103EE8000C8304240023122270B586B0CDE9022386
:103EF80004930368032B01D804230593061D841D2E
:103F0800304601F0FFFD0546304601F003FE03464A
:103F180001A92846019303F0AFFD204601F0F2FD08
:103F2800034620461C4601F0F5FD01A9034620463C
:103F3800019303F0A1FD06B070BD00BF634A03689A
:103F4800934210B58CB028D0614A934258D0614A48
:103F5800934200F09480604A934201D00CB010BDA7
:103F68005E4C5F48D4F8E03043F00203C4F8E03018
:103F7800D4F8E03003F002030A930A9BFFF7B2FF7C
:103F8800D4F8F43043F08003C4F8F430D4F8F430B3
:103F980003F080030B930B9BE0E7504C5148D4F897
:103FA800E03043F00203C4F8E030D4F8E03003F026
:103FB80002030193019BFFF795FFD4F8E830002234
:103FC8001F2043F400131146C4F8E830D4F8E83051
:103FD80003F400130293029BD4F8D83043F0010392
:103FE800C4F8D830D4F8D83003F001030393039B06
:103FF80002F0B4FC1F200CB0BDE8104002F0ECBC8D
:10400800364C3948D4F8E03043F08003C4F8E03047
:10401800D4F8E03003F080030493049BD4F8E03034
:1040280043F00203C4F8E030D4F8E03003F00203B0
:104038000593059BFFF756FFD4F8E83000222120AE
:1040480043F480031146C4F8E830D4F8E83003F4A8
:1040580080030693069BD4F8D83043F00103C4F8D4
:10406800D830D4F8D83003F001030793079B02F047
:1040780075FC21200CB0BDE8104002F0ADBC1B4817
:10408800FFF730FF154B00224820D3F8E8401146CF
:1040980044F40004C3F8E840D3F8E84004F400040A
:1040A8000894089CD3F8D84044F00104C3F8D840D9
:1040B800D3F8D83003F001030993099B02F04EFCB2
:1040C80048200CB0BDE8104002F086BC0054004007
:1040D80000580040005C0040001C00580044025892
:1040E800A085042418830424F0830424C8840424A9
:1040F8002DE9F0431A4B87B000254FF010099E4672
:10410800EC46184BFF22E04667461A700EF1180677
:104118000EF13004CDE90055CDE90255ADF8009017
:10412800BCE80F00CDE90455AEE80F009CE8030099
:104138000095ADF800908EE80300B8E80F000FC6B0
:104148009CE803000095ADF8009086E803000FCFC7
:104158000FC49CE8030084E8030007B0BDE8F083BF
:10416800340000241083042410B5EFF3108472B6D1
:10417800084B1A78120602D504B962B610BD1B782E
:10418800D82205485BB202FB0300143003F022F981
:10419800F2E700BF1083042418830424014804F0C4
:1041A8005DBF00BFA4830424014804F057BF00BFCB
:1041B8007C840424014804F051BF00BF54850424C2
:1041C8002DE9F04182B0EFF3108772B61C4AFF2147
:1041D8001C4C1368217023B1002111601A4A106821
:1041E800984723781B0617D5DFF864800025174EFB
:1041F800444662685AB16369304693B923690193AA
:10420800E368009323892188FFF786FD90B1013583
:104218001834D836032DECD107B962B602B0BDE820
:10422800F081D4E90331CDE9003123892188FFF7F2
:10423800E7FDEBE705EB450508EBC5056860EBE72F
:104248000C83042410830424148304241883042472
:10425800340000242DE9F04182B0EFF3108772B6E4
:104268001C4AFF211C4C1368217023B100211160E6
:104278001A4A1068984723781B0617D5DFF8648018
:104288000025174E444662685AB16369304693B9AF
:1042980023690193E368009323892188FFF73CFD94
:1042A80090B101351834D836032DECD107B962B670
:1042B80002B0BDE8F081D4E90331CDE900312389AA
:1042C8002188FFF79DFDEBE705EB450508EBC505E4
:1042D8006860EBE70C83042410830424148304240B
:1042E80018830424340000242DE9F04182B0EFF350
:1042F800108772B61C4AFF211C4C1368217023B129
:10430800002111601A4A1068984723781B0617D5B0
:10431800DFF864800025174E444662685AB1636925
:10432800304693B923690193E36800932389218870
:10433800FFF7F2FC90B101351834D836032DECD1D3
:1043480007B962B602B0BDE8F081D4E90331CDE91E
:10435800003123892188FFF753FDEBE705EB45057D
:1043680008EBC5056860EBE70C830424108304247C
:104378001483042418830424340000242DE9F04114
:1043880082B0EFF3108772B61C4AFF211C4C1368E9
:10439800217023B1002111601A4A106898472378C8
:1043A8001B0617D5DFF864800025174E444662685F
:1043B8005AB16369304693B923690193E36800935E
:1043C80023892188FFF7A8FC90B101351834D83625
:1043D800032DECD107B962B602B0BDE8F081D4E98B
:1043E8000331CDE9003123892188FFF709FDEBE787
:1043F80005EB450508EBC5056860EBE70C8304246D
:10440800108304241483042418830424340000240F
:104418002DE9F04182B0EFF3108772B604F0C4F9C9
:104428001D4A1E4CFF21136821702BB10021116019
:1044380001211B4A1068984723781B0617D5DFF817
:1044480068800025174E444662685AB16369304651
:1044580093B923690193E368009323892188FFF7BF
:104468005BFC90B101351834D836032DECD107B96F
:1044780062B602B0BDE8F081D4E90331CDE900317C
:1044880023892188FFF7BCFCEBE705EB450508EB22
:10449800C5056860EBE700BF0C830424108304247F
:1044A8001483042418830424340000242DE9F043E1
:1044B8000F68D8243F4D85B007FB04F4032F05EBA4
:1044C8000403036040DCCB680E46012B3CD84DD07A
:1044D8004FF0D808B646DFF8FC9008FB0758BEE84E
:1044E8000F00C446ACE80F00DEF800300DF1100EE6
:1044F800CCF80030D8F808C099E80F000EE90F0092
:104508000EEB8703BCF1010F53F8103CC8F88C3050
:1045180031D0BCF1020F42D0BCF1000F35D0317C54
:104528008C34D823002201202C4403FB0753490074
:10453800C3E92602C3F894102046C3E92822C3E938
:104548002A2204F031F918B1012005B0BDE8F08342
:104558000146204605F0A0FD0028F5D10146204679
:1045680005F0C4FD003818BF0120EEE70B7C103BB6
:10457800672BADD9E8E701F03FF90F4B98420CBF24
:104588000E4B0F4BC8F89030C9E701F035F90A4BCC
:1045980098420CBF0B4B0C4BC8F89030BFE701F0AA
:1045A8002BF9054B98420CBF084B094BC8F89030C3
:1045B800B5E700BF18830424000E27072D0FB0307D
:1045C8003211D0205F4390608A62E030200BA01047
:1045D8001A0980104C560108006870472DE9F0410F
:1045E800D0F8008082B00D4617461E4608F18C04AC
:1045F800204605F04DFD2028FAD1D8F80C3073B9C3
:104608006D002046089C33463A46A9B2009404F04F
:1046180021F9003818BF012002B0BDE8F081089BDD
:1046280032463946204604F0E9F9F2E700682DE9F8
:10463800F0410468032CDDE9067821D0124D2D786D
:104648002D0617D48E469C46EFF3108372B60F4D95
:1046580004EB4404002025F8341005EBC404626020
:10466800A4F808C06061C4E903780BB962B61846BB
:10467800BDE8F081CDE90678BDE8F041FFF74CBB15
:104688000120BDE8F08100BF108304243400002419
:10469800044B10221A7483F8E82083F8C02183F8A9
:1046A800982270471883042430B5002395B04FF43E
:1046B8008071062204460B9306921393CDE90C13DE
:1046C800CDE90E33CDE9113301F098F807282BD046
:1046D80004F1100541F2883206A9284606F018FBB5
:1046E80028B10123184684F85C3015B030BD022289
:1046F800022306A92846CDE9002310220123CDE98B
:10470800022300224FF48003CDE9042305224FF051
:10471800807306926A460F9341F2883306F064FC70
:104728000028DED115B030BD0323012084F85C30A9
:1047380015B030BD0000000070B50023A4B04FF0E4
:1047480080724FF480750446ADF806300D93CDE9BC
:1047580010320122CDE90E53CDE91223CDE91433ED
:10476800002943D0F02300F1100508AEADF806305B
:10477800C02341F2883231462846089306F0C8FA29
:1047880028B10123184684F85C3024B070BD41F28A
:1047980088320DF10601284606F024FB034600285E
:1047A800EFD105224FF480711E93284616924FF0E0
:1047B80080721B9321931F9202AA9FED1F7BCDE964
:1047C8001C13CDE922338DED027B9FED1D7B41F259
:1047D800883316A98DED047B9FED1B7B8DED067B41
:1047E80006F002FC0028CCD124B070BD00F1100501
:1047F80008AE612341F2883231462846089306F014
:1048080087FA0028BDD141F288320DF10601284609
:1048180006F066FB0028B4D1BDF80630204623F028
:10482800780343F04003ADF80630FFF73DFF00285A
:104838009ED0A6E7AFF30080000000000100000052
:10484800100000000100000000000000000040000F
:104858002DE9F04F00234FF4807501264FF0807842
:1048680004462DED028BABB08DF8073013932193DE
:10487800299314950E96CDF85C80CDE91533CDE9D2
:104888001863CDE91A33CDE92253CDE92433CDE9B4
:10489800273306231C9300F0B1FF072808D004F142
:1048A800100741F288321CA9384606F031FA40B1A7
:1048B8000123184684F85C302BB0BDEC028BBDE8B0
:1048C800F08F4FF0020A4FF0020B4FF0050941F24A
:1048D800883308AA1CA93846CDF89480CDF8709082
:1048E8009FED2D8BCDE908AB4FF0000A4FF4800BFC
:1048F8008DED0A8BCDE90CAB06F076FB0028D7D1FD
:1049080041F2883238460EA906F002FA0028CFD1C3
:10491800402341F288320DF1070138468DF80730FF
:1049280006F060FA0028C3D141F288330EA902AA22
:104938003846CDF83890CDF85C809FED197B8DED29
:10494800048BCDE906AB8DED027B06F04DFB0346EB
:104958000028ADD1CDF870904FF00109CDF89480C2
:104968004FF00008219308AA29931CA938462295DC
:10497800CDE92333CDE9273341F288338DED0A8B16
:10498800CDE90CABCDE9088906F02EFB002893D0C1
:10499800304684F85C608FE71000000001000000DA
:1049A80040000000400000002DE9F043624CA3B035
:1049B8000D46046000F022FF072800F0A98028684F
:1049C80023466968AA6807C31E46AB8926F8043BD4
:1049D8003046257B677B06F07DF9E0B9574B012D02
:1049E8004FF00108E061236114BF4FF480134FF4C6
:1049F8000003C4E9058893FAA3F3B3FA83F34FF4E9
:104A08008079013BC4F82490C4E90B003046236246
:104A180006F0F4F838B10122134684F85C201846F1
:104A280023B0BDE8F08366230B90139041F28832DF
:104A380006A90693CDE90C90CDE90E00CDE9110049
:104A4800304606F065F90028E5D1992341F288320D
:104A580006A93046069306F05BF90028DBD105234A
:104A68001C9019906A4614934FF08073219014A9F2
:104A78001D9341F288339FED2A7BCDE91A90CDE949
:104A88001F008DED007B9FED287B30468DED027B6E
:104A98009FED277B8DED047B06F0A6FA0028BAD19E
:104AA80029462046FFF748FE0028B4D12046FFF7E4
:104AB800CFFE03460028AED1002FB0D11893304660
:104AC8000027002606AA14A9CDF86890CDE91F335F
:104AD800EB2314934FF440631B934FF40053179345
:104AE8004FF440431C93A0231693062319934FF0C9
:104AF800805321934FF04073CDE906671D9306F06C
:104B0800EBFA034600288AD0434684F85C8086E79F
:104B180001230322184684F85C2023B0BDE8F08303
:104B2800000000000100000010000000010000006B
:104B38000000000000004000788604240050005265
:104B48002DE9F04F8FB0414B0024026800AF9A4224
:104B58007C63C7E90944C7E90B4403D03C37BD4629
:104B6800BDE8F08F3A4B40F609213A48EB46D3F8B6
:104B7800D42007F11C0607F1220A4FF0020942F47B
:104B880080424FF00308C3F8D420D3F8D42002F4AD
:104B98008042BA60BA68D3F8E02042F04002C3F815
:104BA800E020D3F8E02002F04002FA60FA68D3F877
:104BB800E02042F02002C3F8E020D3F8E02002F021
:104BC80020023A613A69D3F8E02042F01002C3F8B3
:104BD800E020D3F8E02002F010027A617A69D3F875
:104BE800E02042F00202C3F8E020D3F8E030F86198
:104BF80003F002033984BB61174B7B60BB697B6898
:104C080053F8040F7B6000F07DFF7B680546186849
:104C180000F080FF16F8013B786207F1240128466E
:104C2800C7F830807B63C7E90A9402F025FF564530
:104C3800E5D100225C20114601F090FE5C2001F0D5
:104C4800CBFE3C37DD46BD46BDE8F08F0050005234
:104C5800004402580A0A0909D4860424114B026840
:104C68009A4200D07047104A70B5D2F8D4300F4C31
:104C780023F4804304F11806C2F8D43054F8040F22
:104C880000F040FF0546206800F044FF0146284632
:104C980003F032F8B442F1D15C20BDE8704001F075
:104CA800A9BE00BF0050005200440258D486042414
:104CB800014806F09DBA00BF88860424084B1A1DD7
:104CC800981D03F1080110B49C1C9A6603F10A02AE
:104CD800C3E91834C3E91B015DF8044B5A677047F0
:104CE8007886042438B5036871B9026A00F128058A
:104CF80000F5AC74012A0CBF002140218BBB1D4B71
:104D08005722C0F858310DE0426A00F1C00500F59D
:104D1800E874012A0CBF00214021EBB1164B5A223E
:104D2800C0F8D03100232046C4E901214FF4805255
:104D38004FF48061636262614FF48042C4E90331D9
:104D48004FF48073C4E906234FF40033236201F063
:104D5800C9FF58B1FFBEFEE7084B5822C0F8D03152
:104D6800E0E7074B5922C0F85831DBE7C5E9204492
:104D7800A56338BD100002407000024028000240C0
:104D8800580002402DE9F043821D05468BB0031DF3
:104D980005F10A010830CDE9052305F10C02AB69DC
:104DA800CDE907010992002B3DD0EB69B3FA83F8EE
:104DB8004FEA58180123022205AE0AAF4FF0060940
:104DC8000393CDE9012356F8044B2B7922789342BB
:104DD80016D02B68F3B1012B02D1F2B10A23049348
:104DE800204600F097FE03462046009300F08AFE16
:104DF800694602F041FEBE42E5D10BB0BDE8F08342
:104E0800697963789942E4D1B8F1000FF3D02B683F
:104E1800002BE0D1CDF81090E2E76378022B14BFA5
:104E28000A230823DBE74FF00108C3E7534A036866
:104E3800934230B505468BB055D02032934252D0BC
:104E48004F4A934204D02032934201D00BB030BD78
:104E58004C4C4D48D4F8E03043F00103C4F8E0303E
:104E6800D4F8E03003F001030593059BD4F8E03053
:104E780043F00803C4F8E030D4F8E03003F0080346
:104E88000693069BD4F8E03043F04003C4F8E030C2
:104E9800D4F8E03003F040030793079BD4F8F030D0
:104EA80043F40003C4F8F030D4F8F03003F40003FE
:104EB8000893089BFFF766FFD4F8D830296843F0B9
:104EC80001032F4A3048C4F8D830891AD4F8D830AA
:104ED80018BF012103F001030993099B0BB0BDE83A
:104EE8003040FFF7FFBE274C2848D4F8E03043F0A5
:104EF8000103C4F8E030D4F8E03003F00103009374
:104F0800009BD4F8E03043F01003C4F8E030D4F844
:104F1800E03003F010030193019BD4F8E03043F034
:104F28004003C4F8E030D4F8E03003F040030293C3
:104F3800029BD4F8F03043F48003C4F8F030D4F87E
:104F4800F03003F480030393039BFFF71BFFD4F8AF
:104F5800D830296843F00103084A0C48C4F8D8300F
:104F6800891AD4F8D83018BF012103F0010304933B
:104F7800049B0BB0BDE83040FFF7B4BE04580140B5
:104F8800045C0140004402584C890424F08604243F
:104F9800014802F01FBA00BF48880424014802F003
:104FA80019BA00BFC0880424014802F013BA00BF30
:104FB800A48A0424014802F00DBA00BF1C8B042403
:104FC8001A4A0368934210B40BD02032934208D097
:104FD800174A934216D02032934213D05DF8044BFF
:104FE8007047144B0022D3F85442C3F85822002CBF
:104FF800F4D0D3F84802D3E9931223465DF8044B62
:10500800520818470B4B0022D3F8B044C3F8B42415
:10501800002CE3D0D3F8AC24D3F8A814D3F8A40414
:10502800520823465DF8044B184700BF0458014056
:10503800045C0140F0860424184A0368934210B4C3
:105048000BD02032934208D0154A934217D0203211
:10505800934214D05DF8044B7047124BD3E9942463
:105068005208C3F85822002CF4D0D3E99201234601
:1050780001EB820100EB82005DF8044B1847094BF5
:10508800D3F8AC24D3F8B0445208C3F8B424002CA5
:10509800E0D0D3F8A814D3F8A404E8E704580140F2
:1050A800045C0140F08604242DE9F04F0C684FF4AD
:1050B8001776754F87B004FB06F6012C07EB060A36
:1050C800C0F800A000F3A0800D468E464FF00008FF
:1050D800D44669A3D3E9002369A1D1E90001CDE948
:1050E800022306ABCAF8508203EB8403CDE904011E
:1050F80053F810BC53F8083CCAE992880193BEE8FB
:105108000F00ACE80F00BEE80F00ACE80F00019BF1
:105118009EE80300CAF828B0CAF8C0308CE803003B
:105128002B69042B0CD8DFE803F0737D879103000B
:105138004FF41773554A03FB04739A64C3F8E020CD
:10514800AA692B6A002A43D0002B4FF4177308BFB3
:10515800022203FB047318BF0322DA6201221A63D6
:10516800EA696B6A002A40D1191E4FF4177318BFF9
:10517800012103FB0473C3E931126B69022B05D8C3
:10518800434A12F80380434A52F823904FF41773A6
:1051980006F128004246494603FB047400233844BC
:1051A80063646363E365C4F8DC30C4F8CC30C4F8E6
:1051B800F430C4E90F33C4E91533C4E93533C4E91D
:1051C8003B33022308F0B6F8002849D0FFBEFEE7BB
:1051D800191E4FF4177318BF012103FB0473C3E9A9
:1051E8000B12EA696B6A002ABED0002B4FF41773C2
:1051F80008BF022203FB047318BF0322C3F8C420AC
:105208000122C3F8C820B8E7012007B0BDE8F08F35
:105218004FF417734FF4FA5203FB04739A64C3F8FC
:10522800E0208DE74FF417734FF47A5203FB0473B1
:105238009A64C3F8E02083E74FF417734FF4FA42F7
:1052480003FB04739A64C3F8E02079E74FF41773FB
:105258004BF6803203FB04739A64C3F8E0206FE7CF
:1052680006F1C000022342464946384408F062F875
:105278000028CAD0FFBEFEE704580140045C014084
:1052880024580140245C0140F08604240077010082
:10529800385701083C5701080068704770B5046822
:1052A80082B015460E46C4F85032C4E99212069AE6
:1052B800C4F85422A269012A26D0626A012A9AB245
:1052C80011D0294604F1C000019208F0EFF8236AD2
:1052D800019A012B10D0294604F1280008F0E6F8BD
:1052E800002002B070BD04F1C000019208F070F90E
:1052F800236A019A012BEED1314604F1280008F007
:1053080067F9002002B070BD226A012A9AB211D052
:10531800294604F12800019208F0C8F8636A019A46
:10532800012B10D0294604F1C00008F0BFF8002076
:1053380002B070BD04F12800019208F049F9636ACF
:10534800019A012BEED1314604F1C00008F040F972
:10535800002002B070BD00BF03681B69042B05D88C
:10536800044A02EB830393ED000A70479FED020A9B
:10537800704700BF4857010800803B470368D3F8CF
:1053880058027047704700BF08B500F0CBFCBDE875
:10539800084001F0BDBB00BF064808B503680BB163
:1053A80002F07CFD044803681BB1BDE8084004F026
:1053B800C9BE08BDB88F0424B08B0424064808B5BC
:1053C80003680BB102F06AFD044803681BB1BDE82D
:1053D800084004F0B7BE08BDB88F0424B08B04247D
:1053E800064808B503680BB102F058FD0448036885
:1053F8001BB1BDE8084004F0A5BE08BDB88F042461
:10540800B08B0424364BDA6A520062D59A6A9A6ADB
:105418009A6A9B6A180600D500BE314B9B6A9906AA
:1054280000D500BE2E4B9B6ADA0600D500BE2C4B79
:105438009B6A1B0700D500BE294B9B6A980700D5BD
:1054480000BE274B9B6AD90700D500BE244B9B6A38
:105458001A0400D500BE224B9B6A9B0400D500BEEF
:105468001F4B9B6AD80400D500BE1D4B9B6A1905CB
:1054780000D500BE1A4B9B6A5A0500D500BE184BD2
:105488009B6A9B0500D500BE154B9B6AD80500D5C5
:1054980000BE134B9B6A990100D500BE104B9B6A56
:1054A800DA0100D500BE0E4B9B6A1B0300D500BE77
:1054B8000B4B9B6A580300D500BE094B9B6A9903A6
:1054C80000D500BE064B9B6ADA0306D400BE00BEB8
:1054D800FEE7DB6A9B07FAD5F8E700BEF6E700BFF0
:1054E80000ED00E000F02ABC00F02EBC10B582B040
:1054F80040F20633012401A8ADF804308DF80640C7
:10550800FEF70EFB214601A8FEF7F4FB0A2000F087
:105518001BFC034B00221A6601F080FA02B010BD92
:10552800004402582DE9F041CEB004464C22002137
:105538000AA80FF07BFF2022002102A80FF076FFB7
:10554800BC2200211EA80FF071FF022005F06EFAA0
:105558002368012B4FF0000354D0534A02250193CE
:10556800C820D16A514B21F00101D162D26A02F000
:10557800010201929A6942F440429A619B6903F4DC
:1055880040430193019B494A93699B04FCD54849D0
:105598000224002201268B6A04274FF0080823F012
:1055A800030323438B62052316900AA818934FF42C
:1055B80080331096179419941597CDF86880CDE923
:1055C8001B222122CDE91344CDE90A2305F018FF57
:1055D80000B1FEE73F220323294602A8CDE90223B2
:1055E80000220823CDE9042340224023CDE90623E5
:1055F80040234FF48062CDE9082306F02FFA0346D2
:10560800B8B1FEE7294A04250093F0209169264B9A
:1056180041F440419161926902F440420092DA6A91
:1056280042F00102DA62DB6A03F001030093009B97
:10563800A9E720224FF4805125934FF440152B926F
:1056480080222D931EA83093269135914FF48071B6
:10565800249234920C223394439140F227112092E1
:105668001022CDF884802A971F96CDE92E34CDE9F3
:105678003B334FF48033CDE92246319300244693DF
:105688000623CDE93E4527934FF48063094C2C93BC
:105698001E94CDE9281206F03DFC00B1FEE705F0A6
:1056A800EBF94EB0BDE8F0810004005800480258FC
:1056B800004402580F130F032DE9F0410D4604462C
:1056C80084B0D1E9000184E8030000F0FBFAAE7968
:1056D800002E37D06F460BF0B5FAFEF709FD09F03A
:1056E8008BFF0BF043F82B79002B54D16B799BB1CE
:1056F800BFF34F8FBFF36F8F3C4B0022C3F850228C
:10570800BFF34F8FBFF36F8F5A6942F400325A616B
:10571800BFF34F8FBFF36F8F4FF0FF32002300248A
:1057280000253946324802928DF80C30CDE9004503
:105738000AF082FB2E480AF0E7FB09F08DFB04B063
:10574800BDE8F08120466F46FFF7ECFE012401F02A
:105758008DF94FF040534FF4807838460193254B2C
:10576800ADF80040CDE9023801F09EF919224FF05A
:10577800404338468DF80F40ADF80D808DF8014054
:105788008DF80A608DF80820019301F08DF9042046
:1057980001F07AF99FE7154C0023C4F88430BFF371
:1057A8004F8FD4F8803043F6E07EC3F3C906C3F3C5
:1057B8004E334FEA431C0CEA0E00334640EA83722C
:1057C800013BC4F860225A1CF8D1ACF1200C1CF142
:1057D800200FF0D1BFF34F8F636943F480336361C7
:1057E800BFF34F8FBFF36F8F80E700BF00ED00E07E
:1057F800A88B04240E00010306F060BA1C4B9B68BA
:1058080003F17842B2F5003F25D3B3F5803F20D3AA
:1058180003F16042B2F5003F1FD303F15C42B2F5D9
:10582800002F1CD303F17042B2F5902F19D303F166
:105838004842B2F5803F16D303F18042B2F1806F3F
:1058480013D303F1E043B3F5000F2CBF0820072062
:1058580070470120704700207047022070470320DE
:10586800704704207047052070470620704700BF26
:1058780000ED00E003480023034A044903600EF0EA
:1058880045BE00BFA88B0424000000248D530008E7
:1058980010B4204C0022204B83B0D4F888101F4845
:1058A80041F47001C4F8881019681D4C41F00101D9
:1058B80019601A61196808401A4918609A61DA6112
:1058C8001A629A62DA621A635A639A63DA631A642A
:1058D8005A64186820F4802018601A66D3F8DC200F
:1058E80042F06042C3F8DC20D3F8DC300193019B1E
:1058F80023681940B1F1005F03D20B4B0122C3F8B2
:105908000821044B4FF000629A6003B05DF8044B25
:10591800704700BF00ED00E0004402587FEDF6EA52
:105928000010005C0000FFFF0080005100F571715D
:10593800D0F8040408F078BEC1EBC10300EB830380
:10594800D0F80404D3F8082208F09CBEC1EBC103C8
:1059580000EB8303D0F804049A6C08F0D1BE00BFB2
:10596800D0F8040408F070BFC16810B5044619B136
:10597800022900D0FEE70121D4F8040408F04EFF04
:10598800D4F80404BDE8104008F020BF10B5044660
:10599800D0F8040408F046FF2268D2F8003E43F02D
:1059A8000103C2F8003E236A23B1034A136943F096
:1059B8000603136110BD00BF00ED00E0D0F8040439
:1059C80008F03ABFD0F8040408F04EBFD0F8040439
:1059D80008F048BFD0F8040408F048BFD0F8040421
:1059E80008F046BF9446D0F898021A4608B56346B0
:1059F80004F00CFF032802D8024B185C08BD0220F3
:105A080008BD00BF6C570108D0F8980208B504F02B
:105A18008BFF032802D8024B185C08BD022008BD82
:105A28006C570108D0F8980208B504F0C1FF0328A4
:105A380002D8024B185C08BD022008BD6C5701084B
:105A48000A06D0F8983206D4C1EBC10103EB8101F4
:105A580091F8FE01704701F07F01C1EBC10103EB32
:105A6800810191F83E007047D0F8980208B504F01B
:105A7800B7FE032802D8024B185C08BD022008BDF7
:105A88006C570108D0F8980208B504F025FF0328E0
:105A980002D8024B185C08BD022008BD6C570108EB
:105AA800D0F8980208B504F0EFFE032802D8024B9C
:105AB800185C08BD022008BD6C570108D0F8C00268
:105AC80009F084B9D0F8C00209F098B9D0F8C0023A
